:100000000C94D0010C94F8010C94F8010C94F801B4
:100010000C94F8010C94F8010C94F8010C94F8017C
:100020000C94F8010C94F8010C94870C0C94F60CC9
:100030000C94F8010C94F8010C94F8010C94F8015C
:100040000C94F8010C94F8010C94F8010C94F8014C
:100050000C94F8010C94F8010C94F8010C943D0CEC
:100060000C94F8010C944E0F0C94280F0C94F8018A
:100070000C94F8010C94F8010C94F8010C94F8011C
:100080000C94F8010C94F8010C94F8010C94F8010C
:100090000C94F8010C94F8010C94F8010C94F801FC
:1000A0000C94F8010C94F8010C94F801080B000270
:1000B0000202000009040000010202000005240001
:1000C0001001052401010104240206052406000193
:1000D0000705810310004009040100020A00000026
:1000E00007050202400000070583024000000403E8
:1000F000090412010002EF02014041233780000190
:100100000102030141726475696E6F204C4C43001B
:1001100041726475696E6F204D6963726F00206D66
:10012000732E0D0A00207072657373656420696E0A
:100130002000316131623163326432653266336787
:1001400033683369346A346B346C356D356E356FB2
:10015000367036613672377337743775387638775C
:1001600038783979397A0000000000000000002A50
:100170002B2800000000000000000000000000002C
:100180000028295251504F2C3820E030B41E212233
:100190002D31AE1023B6B762595A5B5C5D5E5F606D
:1001A000613736322EB290E79485868788898A8BAC
:1001B0008C8D8E8FB39192938495969798999D9BF1
:1001C0009C9AE2E5EDE625E41405060708090A0B0A
:1001D0000C0D0E0F331112130415161718191D1BD1
:1001E0001C1AE1E3EEDF0000000000000000002A1E
:1001F0002B280000000000000000000000000000AC
:100200000028295251504F2C9EB4A0A1A2A434A67C
:10021000A7A5AE362D373862595A5B5C5D5E5F60CC
:1002200061B333B62EB7B89F8485868788898A8B59
:100230008C8D8E8F909192939495969798999A9B86
:100240009C9D2F3130A3AD350405060708090A0B24
:100250000C0D0E0F101112131415161718191A1B66
:100260001C1DAFB1B0B50000000000240027002A1B
:10027000002D00300000000000250028002B002E7B
:10028000003100000000002300260029002C002F70
:10029000000404040404030405020202020403022D
:1002A000020202060606060606040402020204040E
:1002B0000408020110408040102040804080080265
:1002C00004018040201002011080102040402000D6
:1002D00000000200090F0000030401000C000000F0
:1002E000000000000000000000000000000000000E
:1002F0000000000000002A2B280000000000000081
:1003000000000000000000000000000000002C9E23
:10031000B4A0A1A2A434A6A7A5AE362D3738271EB7
:100320001F20212223242526B333B62EB7B89F845D
:1003300085868788898A8B8C8D8E8F9091929394F5
:1003400095969798999A9B9C9D2F3130A3AD350433
:1003500005060708090A0B0C0D0E0F1011121314D5
:1003600015161718191A1B1C1DAFB1B0B5000501E1
:100370000906A1018502050719E029E715002501F5
:100380007501950881029501750881039506750828
:10039000150025730507190029738100C000800F1F
:1003A00011241FBECFEFDAE0DEBFCDBF11E0A0E029
:1003B000B1E0E8EAF7E202C005900D92A435B1077A
:1003C000D9F726E0A4E5B1E001C01D92A23AB20738
:1003D000E1F711E0C0EDD1E004C02197FE010E94D9
:1003E000CC13CF3CD107C9F70E9456100C94D213FE
:1003F0000C940000CF93DF93FC01818190917106F2
:10040000482F490F5527551F483051059CF5A281AB
:10041000B381109709F52DE636E0338322832081DE
:1004200020936F068093700680917206820F8083FE
:1004300020917306A22FB09174068A2F821B891710
:10044000E8F481813D91C82FD0E0C05FDE4F388352
:100450008F5F8183F2CFD90118962D913C91199726
:1004600021153105C1F72DE636E019963C932E9300
:100470001897D5CF80E0DF91CF91089581E0FBCF31
:10048000FC0180917F05882311F13FB7F89482E049
:100490008093E9002091F200822F90E0181619064F
:1004A00014F481E090E0882339F0289A44E64093E0
:1004B0007E054091F1004083222339F02091F20023
:1004C000211103C02BE62093E8003FBF08958FEF72
:1004D0009FEF0895DC01FB0112962C911297848105
:1004E00095812817190641F491818081813A31F470
:1004F0009D7F81E0913009F080E008958132E1F73D
:100500009B3029F482811F968C9381E008959A3064
:1005100099F7828150968C93F8CFDC01FB0188E437
:10052000808389E4818384E482831D969C911D9756
:100530009F709F5B93831D968D919C9124E096956F
:1005400087952A95E1F78F708F5B848385E0089506
:100550008091760581110DC082E08093720584E060
:1005600080937305109275051092740581E0809355
:10057000760582E795E0089581508F3008F047C0F6
:10058000E82FF0E0EA53FD4F0C94CC13E302E702AE
:10059000D502DB02DF02070307030703EA02F002CA
:1005A000F402F802FE0207030203809180008F77B5
:1005B000809380000895809180008F7DF9CF809195
:1005C0008000877FF5CF84B58F7784BD089584B58B
:1005D0008F7DFBCF809190008F778093900008955E
:1005E000809190008F7DF9CF80919000877FF5CF2B
:1005F0008091C0008F778093C00008958091C000E3
:100600008F7DF9CF8091C200877F8093C2000895CB
:10061000CF93DF93282F30E0F901E153FD4F849110
:10062000F901E055FD4FD491F901EF56FD4FC4910A
:10063000CC23A1F081110E94BC02EC2FF0E0EE0F60
:10064000FF1FED57FD4FA591B491EC91ED2381E093
:1006500090E009F480E0DF91CF91089580E090E090
:10066000FACF1F93CF93DF93282F30E0F901E153A6
:10067000FD4F8491F901E055FD4FD491F901EF56FA
:10068000FD4FC491CC23A9F0162F81110E94BC020A
:10069000EC2FF0E0EE0FFF1FEB58FD4FA591B4914A
:1006A0008FB7F894EC91111108C0D095DE23DC933C
:1006B0008FBFDF91CF911F910895DE2BF8CFCF939D
:1006C000DF9390E0FC01E055FD4F24918F569D4F44
:1006D000FC0184918823D1F090E0880F991FFC01E0
:1006E000E959FD4FA591B491FC01EB58FD4FC5911F
:1006F000D491623071F49FB7F8943C91822F809529
:1007000083238C93E8812E2B28839FBFDF91CF9189
:1007100008958FB7F894EC912E2B2C938FBFF6CFC2
:100720003FB7F89480916E0590916F05A091700588
:10073000B091710526B5A89B05C02F3F19F0019611
:10074000A11DB11D3FBFBA2FA92F982F8827BC012B
:10075000CD01620F711D811D911D42E0660F771F53
:10076000881F991F4A95D1F708958F929F92AF9253
:10077000BF92CF92DF92EF92FF924B015C010E94F9
:1007800090036B017C010E9490036C197D098E0916
:100790009F09683E734081059105A8F321E0821A04
:1007A0009108A108B10888EEC80E83E0D81EE11CAC
:1007B000F11C81149104A104B10429F7FF90EF907A
:1007C000DF90CF90BF90AF909F908F9008952FB7FC
:1007D000F89460916A0570916B0580916C05909119
:1007E0006D052FBF089540915701509158012091F8
:1007F00055013091560142175307B4F49091E80027
:100800009570E1F39091E80092FD19C08093F1009A
:10081000809157019091580101968F739927892BE8
:1008200019F48EEF8093E800809157019091580160
:100830000196909358018093570181E0089580E0DC
:100840000895EF92FF920F931F93CF93DF93F82EAB
:10085000192FE62E042F81E0860F880F0E94F303E4
:1008600083E00E94F303CF2DD12FEC0EFD2EF11C5F
:10087000CE15DF05B9F007FF13C0FE0184910E9479
:10088000F303182F80E00E94F30381232196811146
:10089000EFCFDF91CF911F910F91FF90EF900895CF
:1008A0008881EDCF81E0F5CFDF92EF92FF920F9339
:1008B0001F93CF93DF93D82E8A01EB017B01E40EC7
:1008C000F51ECE15DF0559F0D7FE12C0FE0184914A
:1008D0000E94F30321968111F4CF0FEF1FEFC8019F
:1008E000DF91CF911F910F91FF90EF90DF900895CE
:1008F0008881EECFEF92FF920F931F93CF93DF93F8
:10090000FB012081213871F52381223259F5DC0168
:1009100012964C91248135814217130619F5EC018A
:100920000B851C85F12CE12C0115110589F0F801CE
:10093000448155816281738180E80E9454048F3F15
:10094000980749F0E80EF91ED8010D911C91ECCFE3
:1009500081E08F87C701DF91CF911F910F91FF90A9
:10096000EF90089590E080E0F6CFCF93DF93CDB77E
:10097000DEB769970FB6F894DEBF0FBECDBFFC019E
:10098000DB018C918F5F8C939E012D5F3F4F8DE03B
:10099000D9011D928A95E9F729E0298384E08A83A9
:1009A00091E09D8383E08E832A8721E22B879C87B9
:1009B0009D879F8722E2288B27E02B8B25E02C8BBD
:1009C0008E8B20E430E0388F2F8B998F82818B8340
:1009D00095858685998B8A8B838180688D8B49E18B
:1009E00050E0BE016F5F7F4F80E00E945404699623
:1009F0000FB6F894DEBF0FBECDBFDF91CF91089543
:100A00000F931F93CF93DF931F92CDB7DEB782E092
:100A1000898342E450E06CEA70E080E80E9454046C
:100A20000E94A802DC0112960D911C91011511057E
:100A300089F0D801ED91FC910280F381E02DBE0197
:100A40006F5F7F4FC801099597FD04C0F8010085CD
:100A50001185ECCF89810F90DF91CF911F910F917C
:100A600008952FB7F89487708093E9009091E8007B
:100A7000892F807295FF04C09091F20080E4891B59
:100A80002FBF08957F928F929F92AF92BF92CF9285
:100A9000DF92EF92FF920F931F93CF93DF93C82EB5
:100AA0008B017A0180917F05811110C08FEF9FEF3C
:100AB000DF91CF911F910F91FF90EF90DF90CF903A
:100AC000BF90AF909F908F907F90089580915B0131
:100AD00080FF05C08091E00082608093E000CE2D11
:100AE000DF2DD12C8AEFB82E8C2D8770982E8C2D6F
:100AF0008072882E8C2D8074782E9AE3A92E2097F0
:100B000019F4DD2009F452C08C2D0E9431058111A9
:100B10000AC0BA94BB2051F261E070E080E090E03E
:100B20000E94B503ECCF8C171D0611F00CF08C2F32
:100B30009FB7F8949092E9002091E80025FD02C04B
:100B40009FBFDDCF282F30E0C21BD30B882029F0B8
:100B50008150A0F01092F100FBCFF801C7FC0AC051
:100B6000815050F041914093F100FACF449140936D
:100B7000F10031968150D0F7020F131FDD2021F0D4
:100B8000A092E800D12CDCCF8091E80085FD07C061
:100B9000A092E800DD24D394209791F2F3CF209720
:100BA00079F6772069F2A092E800CACF5D9A84E6D0
:100BB00080935A01C7017CCFEF92FF921F93CF938E
:100BC000DF931F92CDB7DEB77C0180917E06811145
:100BD0002AC011E0109371061093720687E796E021
:100BE00090937406809373061092760610927506A1
:100BF0008FE391E090936E0680936D0610927906D4
:100C00001092780610927B0610927A0610937C065A
:100C100010937D0681EC809377060E94A8020E94C3
:100C2000FA0110937E0682E0898341E050E0BE0124
:100C30006F5F7F4F809170060E94420597FD08C04C
:100C40008091700648E050E0B70180640E94420540
:100C50000F90DF91CF911F91FF90EF900895615019
:100C600030F02091F100FC0120830196F8CF289A02
:100C700084E680937E050895AF92BF92CF92DF9273
:100C8000EF92FF920F931F93CF93DF936C017B0141
:100C90008B01040F151FEB015E01AE18BF08C017D2
:100CA000D10759F06991D601ED91FC910190F08145
:100CB000E02DC6010995892B79F7C501DF91CF9108
:100CC0001F910F91FF90EF90DF90CF90BF90AF906A
:100CD0000895FC01538D448D252F30E0842F90E042
:100CE000821B930B541710F0CF9608950197089527
:100CF000FC01918D828D981761F0A28DAE0FBF2FF0
:100D0000B11D5D968C91928D9F5F9F73928F90E045
:100D100008958FEF9FEF0895FC01918D828D9817B4
:100D200031F0828DE80FF11D858D90E008958FEFF1
:100D30009FEF0895FC01918D228D892F90E0805CBA
:100D40009F4F821B91098F739927089580E895E042
:100D50000E949A0621E0892B09F420E0822F089551
:100D600080E090E0892B29F00E94A60681110C9466
:100D700000000895FC01A48DA80FB92FB11DA35A3E
:100D8000BF4F2C91848D90E001968F739927848FAB
:100D9000A689B7892C93A089B1898C9182748C9390
:100DA000938D848D981306C00288F389E02D80818D
:100DB0008F7D80830895EF92FF920F931F93CF93BF
:100DC000DF93EC0181E0888F9B8D8C8D981319C087
:100DD000E889F989808185FF14C09FB7F894EE896E
:100DE000FF896083E889F9898081827480839FBF4D
:100DF00081E090E0DF91CF911F910F91FF90EF90F4
:100E00000895F62E0B8D10E00F5F1F4F0F73112703
:100E1000E02E8C8D8E110CC00FB607FCFACFE8893E
:100E2000F989808185FFF5CFCE010E94BA06F1CF06
:100E3000EB8DEC0FFD2FF11DE35AFF4FF0829FB7B2
:100E4000F8940B8FEA89FB8980818062CFCFCF93A2
:100E5000DF93EC01888D8823B9F0AA89BB89E889E2
:100E6000F9898C9185FD03C0808186FD0DC00FB688
:100E700007FCF7CF8C9185FFF2CF808185FFEDCF06
:100E8000CE010E94BA06E9CFDF91CF910895CF93AA
:100E9000DF93EC0180910D01882331F083E00E9403
:100EA00042051816190634F081E090E09B838A838E
:100EB00080E090E0DF91CF910895CF93DF931F9270
:100EC000CDB7DEB76983DC01ED91FC910280F3813F
:100ED000E02D41E050E0BE016F5F7F4F09950F901C
:100EE000DF91CF91089583E08093E9008091F20033
:100EF000882319F08AE38093E800089583E00E9434
:100F0000310590E00895CF93DF931F92CDB7DEB700
:100F1000FC018485958597FD08C02FEF3FEF35874D
:100F200024870F90DF91CF910895CE0101960E9402
:100F30004002019719F4898190E0F3CF8FEF9FEF82
:100F4000F0CF0F931F93CF93DF931F92CDB7DEB7F0
:100F50008C01FC018485958597FF0BC0CE0101961D
:100F60000E944002019771F4898190E0F801958711
:100F70008487F801848595850F90DF91CF911F912B
:100F80000F9108958FEF9FEFF1CFFC018485958538
:100F900097FD0BC09FB7F89482E08093E9008091A1
:100FA000F2009FBF90E0019608959FB7F89482E009
:100FB0008093E9008091F2009FBF90E00895CF9266
:100FC000DF92EF92FF920F931F93CF93DF936C0109
:100FD000EB017B01E40EF51E10E000E0CE15DF050D
:100FE00081F069916D30D1F3D601ED91FC910190C2
:100FF000F081E02DC6010995892B19F00F5F1F4F75
:10100000EDCFC801DF91CF911F910F91FF90EF902D
:10101000DF90CF900895DC016838A0F06858FD019A
:1010200086E0662321F09681961301C016828150D6
:1010300031968111F6CFCD0104960E94DC0581E046
:1010400090E00895862F90E067FF13C0FC01E05800
:10105000F10981E090E001C0880FEA95EAF78095F8
:1010600014969C911497892314968C93149760E09E
:10107000D6CF1C96ED91FC911D97E80FF91F649156
:101080006623E1F0862F807C803C69F414968C9175
:1010900014978F7B14968C9314976F73623309F0B7
:1010A000BECF64E6BCCF67FFF9CF14968C9114973E
:1010B0008D7F14968C9314976F77F0CF90E080E03B
:1010C0000895DC01683888F1685816968C91169757
:1010D000861721F117968C9117978617F9F01896B5
:1010E0008C9118978617D1F019968C9119978617BD
:1010F000A9F01A968C911A97861781F01B968C91FD
:101100001B97861759F0FD01369690E080E02191FB
:1011100021114FC08A0F9B1FFC016683CD010496ED
:101120000E94DC0581E090E00895862F90E067FF43
:1011300012C0FC01E058F10921E030E001C0220FAB
:10114000EA95EAF714968C911497822B14968C9357
:10115000149760E0BACF1C96ED91FC911D97E80FB3
:10116000F91F6491611109C081E090E013969C938E
:101170008E93129790E080E00895862F807C803CCB
:1011800069F414968C911497806414968C93149738
:101190006F73623309F099CF64E697CF67FFF9CF99
:1011A00014968C911497826014968C9314976F7791
:1011B000F0CF01968630910509F0A9CFD5CFEF92F7
:1011C000FF921F93CF93DF93EC01162F0E946108CB
:1011D0007C01612FCE010E940B08C7019927DF9186
:1011E000CF911F91FF90EF900895089590E080E0D7
:1011F0000895CF92DF92EF92FF920F931F93CF93B8
:10120000DF93D82FC62F0E94E703DA5E24E0D29F37
:10121000F0011124ED53FE4F0081118122813381B1
:101220006B017C01C01AD10AE20AF30A9701860118
:10123000083211052105310500F1CA5124E0C29F91
:10124000F0011124ED53FE4F008111812281338181
:10125000601B710B820B930B21E0683271058105D5
:10126000910508F020E0822FDF91CF911F910F911F
:10127000FF90EF90DF90CF90089521E0F4CFCF93CF
:10128000DF93C6EEC80FD0E0C150DB4F98819923A1
:1012900069F0682F84E996E00E940B08188280911B
:1012A0005401882319F0815080935401DF91CF912C
:1012B00008958F929F92AF92BF92CF92DF92EF925A
:1012C000FF920F931F93CF93DF93D82EC62EC6EEB7
:1012D000C80FD0E08E0101501B4FF80180818111B1
:1012E00046C00E94E7038090FB049090FC04A0900D
:1012F000FD04B090FE04681579058A059B0589F305
:10130000CC0FDD1FCC0FDD1FCE018D539E4F7C0116
:101310000E94E703F70180809180A280B380681962
:1013200079098A099B09683271058105910580F365
:101330006D2D84E996E00E94610881E0C11082E091
:10134000F80180830E94E7036093FB047093FC0420
:101350008093FD049093FE04CD53DE4F6883798320
:101360008A839B83809154018F5F80935401DF9126
:10137000CF911F910F91FF90EF90DF90CF90BF9092
:10138000AF909F908F900895682F89E00C9431035F
:10139000682F88E00C9431038F929F92AF92BF9296
:1013A000CF92DF92EF92FF920F931F93CF93DF9331
:1013B000C82F0E94E7036B017C018091F704909194
:1013C000F804A091F904B091FA0446015701881A73
:1013D000990AAA0ABB0AD501C4014597A105B1051E
:1013E00020F0809166050E94C4098091F3049091D9
:1013F000F404A091F504B091F604A7019601281B0E
:10140000390B4A0B5B0BDA01C9014597A105B10500
:1014100020F0809165050E94C809AFEFB4E0E3ECCD
:10142000F1E080E090E000E010E09801DD91DD2344
:1014300081F1408151816281738146015701841A93
:10144000950AA60AB70AB501A401D130A1F4423326
:10145000510561057105A8F0865EDF91CF911F915E
:101460000F91FF90EF90DF90CF90BF90AF909F9043
:101470008F900C943F094031D7E25D0761057105FB
:1014800058F7041715072607370718F4982F8A010D
:101490009B018F5F3496863649F6CC2361F08091AC
:1014A0005401863040F0043111052105310518F052
:1014B0008AE1890FD2CFDF91CF911F910F91FF90D9
:1014C000EF90DF90CF90BF90AF909F908F90089556
:1014D0007F928F929F92AF92BF92CF92DF92EF92C4
:1014E000FF920F931F93CF93DF9390ED980F9A3055
:1014F000A0F4209101012F3F81F490930001DF912E
:10150000CF911F910F91FF90EF90DF90CF90BF9000
:10151000AF909F908F907F90089592EF980F9230A8
:1015200030F49FEF9093000180930101E8CFD091B8
:101530000001DF3F41F090916605911104C08FEFEB
:1015400080930001DCCF8A31D4F2C82F7090010162
:101550008FE0781205C08C2F0E943F098FEFE4CFF7
:1015600006EE0C0F10E07801EE0CFF1CEE0CFF1CD9
:10157000F701E55AFC4F6F0180809180A280B38013
:101580000E94E703F60160837183828393830E9444
:10159000E703A5019401245C3F4F4F4F5F4F621753
:1015A00073078407950718F4FFEF7F1641F2DF3FBA
:1015B00081F08FEF78120DC06C2F8D2F0E94F908EB
:1015C000882339F0F801E35AFE4FD083709200016E
:1015D00096CFF801E150FB4F8081882329F0DF3F4F
:1015E00029F18C2F0E943F09809154018630D8F157
:1015F00081E00E94CC09809154018630A8F390913B
:10160000650581E089270E94C8090E94E70360936D
:10161000F3047093F4048093F5049093F60461E06E
:1016200070E080E090E00E94B503DECF9FEF79127A
:10163000D8CF0E94E703F701ED53FE4F00811181DF
:1016400022813381601B710B820B930B6431710516
:101650008105910530F6F701E55AFC4F80829182B1
:10166000A282B3824CCF0E94E7036093F704709389
:10167000F8048093F9049093FA049091660581E050
:1016800089270E94C40980916505882321F08FEF86
:101690008093000149CFDF3F49F060E010E31D0F68
:1016A000812F0E945909812F0E943F0961E0EEE0DD
:1016B0007E1260E08C2F0E9459091FEF10930101E8
:1016C000DF3F09F41CCF8C2F0E943F0910930001CB
:1016D00016CF8F929F92BF92CF92DF92EF92FF929E
:1016E0000F931F93CF93DF938C017B01B12CD0E03C
:1016F000C0E08AE1C82ED12C81E68B0D0E94680AD9
:101700008B2D90E00196B6010E949613B82E912C75
:10171000812C61E070E080E090E00E94B50380E001
:101720000E94CC098FEF881A980AE814F90489F707
:1017300021960C171D0701F7DF91CF911F910F9193
:10174000FF90EF90DF90CF90BF909F908F90089583
:10175000EF92FF920F931F93CF93DF93082F10E028
:101760009801235A3E4F7901F901D081DF3F41F4BE
:1017700081E0DF91CF911F910F91FF90EF9008953D
:10178000C82FC65E6C2F8D2F0E94F90881113FC0B3
:101790008FEFF7018083809165058111E9CF8091FA
:1017A00054018630D8F081E00E94CC098091540128
:1017B0008630A8F381E00E94C8090E94E703609385
:1017C000F3047093F4048093F5049093F60461E0BD
:1017D00070E080E090E00E94B503E1CFF801E150B5
:1017E000FB4F8081882319F08C2F0E943F09D05D28
:1017F00060E08D2F0E9459098D2F0E943F0960E003
:101800008C2F0E9459098C2F0E943F09B1CF80E094
:10181000B0CF1F93CF93DF93C1E0D0E011E064E637
:1018200070E080E090E00E94B5038C2F81700E94F0
:10183000C8098C2F81270E94C409DF5FCF5FC17068
:10184000DA3069F7809165050E94C80980916605C4
:10185000DF91CF911F910C94C409CF93DF93EC01DA
:10186000FE0164912196662329F08DE196E00E94A5
:101870005D07F6CFDF91CF9108951F920F920FB6BB
:101880000F9211242F933F938F939F93AF93BF9306
:1018900080916A0590916B05A0916C05B0916D05E2
:1018A0003091690523E0230F2D3758F50196A11DCE
:1018B000B11D2093690580936A0590936B05A093F1
:1018C0006C05B0936D0580916E0590916F05A091A8
:1018D0007005B09171050196A11DB11D80936E0533
:1018E00090936F05A0937005B0937105BF91AF9170
:1018F0009F918F913F912F910F900FBE0F901F904E
:10190000189526E8230F0296A11DB11DD2CF1F9274
:101910000F920FB60F9211248F939F938091E10045
:101920009091E100937F9093E10083FF0FC01092AC
:10193000E90091E09093EB001092EC0092E3909319
:10194000ED0010927F0598E09093F00082FF22C096
:1019500093E09093E9009091F200992319F09AE3B3
:101960009093E80090915A01992341F090915A0187
:10197000915090935A01911101C05D9890917E050C
:10198000992341F090917E05915090937E0591119D
:1019900001C0289884FF18C08091E2008E7E81608B
:1019A0008093E2008091E1008F7E8093E10080913E
:1019B0005B018E7E806180935B019F918F910F9080
:1019C0000FBE0F901F90189580FFF7CF8091E20017
:1019D0008E7E80618093E2008091E1008E7E809314
:1019E000E10080915B018E7E8160E5CF1F920F92B6
:1019F0000FB60F921124CF92DF92EF92FF920F93C6
:101A00001F932F933F934F935F936F937F938F9386
:101A10009F93AF93BF93EF93FF93CF93DF93CDB794
:101A2000DEB76C97DEBFCDBF1092E9008091E80071
:101A300083FF25C068E0CE0145960E942F0682EF05
:101A40008093E8008D8987FF39C09091E80090FF6E
:101A5000FCCF982F907609F034C19E894F89588D1C
:101A60002F89F88C911131C0803861F580915C012B
:101A70008093F1001092F1008EEF8093E8006C9655
:101A80000FB6F894DEBF0FBECDBFDF91CF91FF91AF
:101A9000EF91BF91AF919F918F917F916F915F91E6
:101AA0004F913F912F911F910F91FF90EF90DF90F9
:101AB000CF900F900FBE0F901F9018959EEF9093B0
:101AC000E800C7CF1092F100D5CF913059F48111C1
:101AD000D3CF4130510581F680915C018D7F809399
:101AE0005C01CACF933049F48111C6CF4130510512
:101AF00019F680915C018260F2CF953041F48091BB
:101B0000E80080FFFCCF20682093E300B5CF96303B
:101B100009F0A9C00B8D1C8D22E01092E9001092F3
:101B2000580110925701F2122EC0109256011092D5
:101B300055010E9400051F8299E09983FA8291E085
:101B40009E8390EA98879AEF998720915701309168
:101B50005801275F3F4F3C832B838D831092E90010
:101B6000109258011092570110935601009355019D
:101B700049E050E0BE016F5F7F4F80E00E94540457
:101B80000E94000579CF10935601009355010E94E1
:101B9000A802DC0112960D911C910115110509F4A2
:101BA00051C1D801ED91FC910480F581E02DBE0179
:101BB0006B5E7F4FC8010995009709F03EC1F8019F
:101BC00000851185EACFF3E0FF120EC08F898823CC
:101BD00009F440C0823061F440E86DE080E191E0BA
:101BE0000E942104811148CF81E28093EB0047CF0E
:101BF000813029F440E86BE084E091E0F1CF83305C
:101C000099F70E94A802DC011296ED90FC908E01DB
:101C10000F5F1F4F6801E114F10479F0D701ED91D6
:101C2000FC910680F781E02DB801C7010995080FE6
:101C3000111DF701E084F184EECFD8011C92F6016A
:101C400001900020E9F73197BF016C197D0940E050
:101C5000C601C6CF6EEE70E0FB01449150E080E813
:101C60000E94540409CF973009F4BECF983021F474
:101C700081E08093F10000CF993009F0FDCE8370B0
:101C800009F0B2CFE1E1F1E081E031E096E32191AA
:101C9000222371F08093E9003093EB00DF0111976C
:101CA0002C912093EC009093ED008F5F873079F7B3
:101CB0008EE78093EA001092EA008F8980937F0577
:101CC000DBCE8B8D9C8D1092E90010925801109202
:101CD00057019093560180935501898D811192C0CF
:101CE0008E899D89913A49F4813209F07DCF47E090
:101CF00050E066E071E080E0B3CF913209F074CF3C
:101D0000833269F48F89988DB0E0A0E0809302015E
:101D100090930301A0930401B0930501ADCE8032EE
:101D200069F48091E80082FFFCCF67E086E091E0F3
:101D30000E942F068BEF8093E8009ECE823209F03E
:101D40009BCE8F8980930D01EEEFFFE785919491F3
:101D50008B3F9C4D51F1E0E0F8E0809106019091BD
:101D60000701A0910801B0910901803B9440A105B1
:101D7000B105F1F480910D0180FD1AC0EE3F8AE0BB
:101D8000F80789F587E797E7918380838091600062
:101D90008093590188E19BE00FB6F894A895809351
:101DA00060000FBE9093600067CEEEEFFAE0D5CFF3
:101DB000808191818737974709F05ECEA895809101
:101DC0006000886180936000809159018093600079
:101DD000EE3F2AE0F20789F08091FE0A9091FF0A17
:101DE0009183808349CE808191818737980751F212
:101DF0009093FF0A8093FE0AC5CF1092FF0A1092BB
:101E0000FE0A3ACE0E94A802DC0112960D911C91A6
:101E10000115110509F4E8CED801ED91FC9101906E
:101E2000F081E02DBE016B5E7F4FC80109958111E5
:101E300023CEF80100851185EBCF181619060CF496
:101E40001BCED2CEF1E0FF12BECE62EF70E004CF27
:101E50001F920F920FB60F9211242F933F934F931F
:101E60005F936F937F938F939F93AF93BF93EF9302
:101E7000FF9380E895E00E94BA06FF91EF91BF9131
:101E8000AF919F918F917F916F915F914F913F9112
:101E90002F910F900FBE0F901F9018951F920F92C9
:101EA0000FB60F9211242F938F939F93EF93FF936D
:101EB000E0919005F09191058081E0919605F09177
:101EC000970582FD1BC09081809199058F5F8F736C
:101ED00020919A05821741F0E0919905F0E0E058D1
:101EE000FA4F958F80939905FF91EF919F918F9174
:101EF0002F910F900FBE0F901F9018958081F4CFF7
:101F0000CF93109283051092820588EE93E0A0E0B3
:101F1000B0E08093840590938505A0938605B093E7
:101F200087052BE131E030938105209380052DEC6E
:101F300030E030938D0520938C052CEC30E030930D
:101F40008F0520938E0528EC30E030939105209387
:101F5000900529EC30E030939305209392052AEC0C
:101F600030E030939505209394052EEC30E03093CB
:101F70009705209396051092990510929A05109254
:101F80009B0510929C051092200610921F068093CC
:101F9000210690932206A0932306B09324068DE297
:101FA00091E090931E0680931D068FEF9FEF909314
:101FB0002A068093290610929706109296068BE4C3
:101FC00091E0909395068093940680918C06811100
:101FD00013C010928706109286068EE693E09093C7
:101FE0008906809388068FE290E090938B06809319
:101FF0008A0681E080938C0680917E0681112AC03A
:10200000C1E0C0937106C093720687E796E0909393
:1020100074068093730610927606109275068FE30D
:1020200091E090936E0680936D061092790610925F
:10203000780610927B0610927A06C0937C06C093B5
:102040007D0681EC809377060E94A8020E94FA0127
:10205000C0937E06E0917806F09179063097E9F416
:1020600086E896E0909379068093780680917A06C8
:1020700090917B0620918A0630918B06820F931FE8
:1020800090937B0680937A068EEE92E09093A10661
:102090008093A006CF910895FC01808191810097E3
:1020A000D9F786E896E091838083E0CFCF93DF93E2
:1020B000CDB7DEB72F970FB6F894DEBF0FBECDBFFA
:1020C000789484B5826084BD84B5816084BD85B513
:1020D000826085BD85B5816085BD80916E0081601F
:1020E00080936E00109281008091810082608093C5
:1020F00081008091810081608093810080918000C7
:102100008160809380008091910082608093910033
:102110008091910081608093910080919000816016
:10212000809390008091C10084608093C100809171
:10213000C10082608093C1008091C1008160809362
:10214000C1008091C30081608093C3008091C00072
:1021500082608093C0008091C20081608093C20041
:1021600080917A00846080937A0080917A00826006
:1021700080937A0080917A00816080937A008091C8
:102180007A00806880937A0010927F0510925C013B
:1021900010925B018091D70081608093D70080EA24
:1021A0008093D80089B5806189BD89B5826089BD79
:1021B00089B5282F21702F8780FFFACF61E070E06A
:1021C00080E090E00E94B5038091D8008F7C806110
:1021D0008093D8008091E000807F8093E000809120
:1021E000E1008E7E8093E1008DE08093E200559ABD
:1021F000209A5D982898EFEFF4E0119235E0E536EB
:10220000F307D9F71092FB041092FC041092FD041E
:102210001092FE041092F7041092F8041092F90440
:102220001092FA041092F3041092F4041092F50440
:102230001092F604EBE5F3E083EC91E04DE551E01C
:102240002FEF1192119211921192DC011D921D92A9
:102250001D921D92CD01DA012D93AD01B4E0E33F53
:10226000FB0779F761E088E00E945F0361E089E0A5
:102270000E945F0362E082E10E945F0362E083E10B
:102280000E945F0362E084E10E945F0362E085E1F7
:102290000E945F0381E00E94C80981E00E94C40996
:1022A000E0919005F091910582E08083E0918C05AA
:1022B000F0918D051082E0918E05F0918F0580E1FF
:1022C000808310929805E0919405F091950586E041
:1022D0008083E0919205F0919305808180618083F5
:1022E000E0919205F0919305808188608083E09170
:1022F0009205F0919305808180688083E09192053A
:10230000F091930580818F7D808381E080930E0121
:1023100087E691E09093A1068093A006FE01319696
:102320003F0127E4522E80910F01882331F0109253
:102330000F01509268050E94090C80E895E00E9408
:102340009A06892B31F080E895E00E9478060E9479
:10235000680A80E00E94CC0982E10E9408035C01C7
:1023600083E10E9408036C0184E10E9408037C0160
:1023700085E10E9408038C01AB2821F0809167055C
:10238000813029F50E94E7034B015C01412C82E179
:102390000E940803892B81F40E94E70368197909D8
:1023A0008A099B09653F71408105910580F30E9470
:1023B000090C44244394EBCF41104EC081E60E94A7
:1023C000680A62E370E080E090E00E94B503B0909C
:1023D0006705CD2819F092E0B9120CC065E070E0F5
:1023E0008AE190E00E94690B66E970E080E090E08D
:1023F0000E94B503EF2819F0A3E0BA1206C063E00B
:1024000070E084E091E00E94690B012B19F0B4E0C8
:10241000BB124AC010916605812F0E94C4090E9418
:10242000E7036B017C01B12C01E0012785E10E94EB
:102430000803892B49F50E94E7036C197D098E0971
:102440009F09653F71408105910580F3802F0E94AF
:10245000C409BB24B394EACF80910E01813051F4BA
:1024600082E080930E0127EE31E03093A1062093A5
:10247000A006A7CF81E080930E0187E691E09093BC
:10248000A1068093A0069DCFB11048C0809165053C
:1024900091E08927809365050E94C80962E370E096
:1024A00080E090E00E94B50380916705893009F0D3
:1024B0000DC10E94E7034B015C0120E130E03E8743
:1024C0002D8710E000E082E391E09C878B87312C20
:1024D000212CEB85FC854490442069F10E94E703A0
:1024E0006B017C01F9E1F41534F4842D0E94680A33
:1024F0002FEF221A320A97E4492E0E94E7036C1943
:102500007D098E099F09633071058105910558F099
:102510008B859C8501969C878B87DBCF81E0182774
:1025200010936605BBCF842D0E94A80B439490E6C0
:10253000941508F3E2CFEE24E39487E4F82E8F2D70
:102540000E94A80B811101C0E12CF394A1E6FA12BC
:10255000F6CFEE2081F3020D131DED85FE85319738
:10256000FE87ED87EF2B09F0AECF0E94E7036B01EA
:102570007C019F85412C0115110511F441100EC0FD
:10258000F301E40DF11DC8016AE070E00E948213BE
:10259000805D80838B0190E04394EDCF842D890F83
:1025A000382E992379F033243A94380E811105C0DE
:1025B0006EE28DE196E00E945D0760E38DE196E0BA
:1025C0000E945D070FEF040D10E00F5F1F4F060D17
:1025D000171D232C211005C06EE28DE196E00E94AC
:1025E0005D07D8016E918D018DE196E00E945D0737
:1025F0002A946016710671F7341813143CF460E3E2
:102600008DE196E00E945D073A94F7CF85E291E074
:102610000E942D0CC701B601681979098A099B0926
:102620002F85E12C611571058105910511F4E110EB
:1026300011C083010E0D111D2AE030E040E050E092
:102640000E94AA13605DF8016083B901CA0120E00D
:10265000E394E8CF8E2D820FF82E222379F0FF2409
:10266000FA94F80E811105C06EE28DE196E00E94A9
:102670005D0760E38DE196E00E945D070FEF0E0DB0
:1026800010E00F5F1F4F060D171DDF2CD11005C086
:102690006EE28DE196E00E945D07D8016E918D019A
:1026A0008DE196E00E945D07DA946016710671F77D
:1026B000FE181F143CF460E38DE196E00E945D0774
:1026C000FA94F7CF8EE191E00E942D0C10926705ED
:1026D00010916805812F0E94A80B1F5F113678F4B6
:1026E00010936805E0E0F0E0EF2B09F41CCE0E94A7
:1026F000A606882309F415CE0E94000012CE50923F
:102700006805F0CFAA1BBB1B51E107C0AA1FBB1F66
:10271000A617B70710F0A61BB70B881F991F5A956D
:10272000A9F780959095BC01CD01089597FB072EE0
:1027300016F4009407D077FD09D00E94821307FC9D
:1027400005D03EF4909581959F4F089570956195C1
:102750007F4F0895A1E21A2EAA1BBB1BFD010DC0DD
:10276000AA1FBB1FEE1FFF1FA217B307E407F50741
:1027700020F0A21BB30BE40BF50B661F771F881F1D
:10278000991F1A9469F760957095809590959B01B3
:10279000AC01BD01CF010895EE0FFF1F0590F4912C
:0827A000E02D0994F894FFCF2D
:1027A800FFFFFFFFFFFF00E1000000000000010144
:1027B80000C1808100000000000000DB063C0669C3
:1027C8000627079A0678068C06000000005D074772
:1027D800077E077307C5078307A107000000006A83
:1027E80002B5047A048D0200000000DF08DF07F656
:0427F80008F50800D8
:00000001FF
